:100000000C94BA000C94E2000C94E2000C94B50736
:100010000C94B5070C94B5070C94E2000C94E20024
:100020000C94E2000C94E2000C94E2000C94E200C8
:100030000C94E2000C94E2000C94E2000C94E200B8
:100040000C946B070C94E2000C9425060C94FF05AD
:100050000C94E2000C94E2000C94E2000C94E20098
:100060000C94E2000C94E200CE10D110D410D71002
:10007000DA10DD10F010F310061109110C110F1138
:10008000121115112B112E11D5128513BF11C11389
:10009000E6130D148114CF14E71406159715AF1548
:1000A000C715DF15711681169716B516D616F316F5
:1000B00024177017C2171A187718D01808000000F4
:1000C000BE922449123EABAAAA2ABECDCCCC4C3E4D
:1000D00000000080BEABAAAAAA3E00000000BF003C
:1000E0000000803F0000000000084178D3BB438738
:1000F000D1133D190E3CC3BD4282AD2B3E68EC824C
:1001000076BED98FE1A93E4C80EFFFBE01C4FF7FD0
:100110003F000000000000000000240027002A002B
:1001200000000000250028002B0000000000230034
:100130002600290004040404040404040202020248
:10014000020203030303030301020408102040809A
:100150000102040810200102040810200000000819
:10016000000201000003040700000000000000007E
:10017000251A1F0D11241FBECFEFD8E0DEBFCDBF63
:1001800013E0A0E0B1E0E4EBF1E402C005900D92D1
:10019000AA37B107D9F726E0AAE7B3E001C01D925C
:1001A000AC38B207E1F710E0C9EBD0E004C021970A
:1001B000FE010E944C1BC83BD107C9F70E94340DB9
:1001C0000C94CD200C940000CF92DF92EF92FF921E
:1001D0000F931F93CF93DF936C017A018B01C0E0E3
:1001E000D0E0CE15DF0589F0D8016D918D01D601E3
:1001F000ED91FC910190F081E02DC6010995892BCC
:1002000011F47E0102C02196ECCFC701DF91CF919E
:100210001F910F91FF90EF90DF90CF900895FC0118
:10022000918D828D981761F0828DDF01A80FB11D2D
:100230005D968C91928D9F5F9F73928F90E0089551
:100240008FEF9FEF0895FC01918D828D981731F00B
:10025000828DE80FF11D858D90E008958FEF9FEF5F
:100260000895FC01918D228D892F90E0805C9F4F35
:10027000821B91098F739927089584E094E00E946E
:10028000310121E0892B09F420E0822F0895FC013F
:10029000848DDF01A80FB11DA35ABF4F2C91848D0F
:1002A00090E001968F739927848FA689B7892C9344
:1002B000A089B1898C9180648C93938D848D9813DF
:1002C00006C00288F389E02D80818F7D80830895A8
:1002D000EF92FF920F931F93CF93DF93EC0181E096
:1002E000888F9B8D8C8D981305C0E889F989808152
:1002F00085FD24C0F62E0B8D10E00F5F1F4F0F738E
:100300001127E02E8C8DE8120CC00FB607FCFACF37
:10031000E889F989808185FFF5CFCE010E944701E8
:10032000F1CF8B8DFE01E80FF11DE35AFF4FF082F4
:100330000B8FEA89FB898081806207C0EE89FF8983
:100340006083E889F98980818064808381E090E01E
:10035000DF91CF911F910F91FF90EF900895CF9370
:10036000DF93EC01888D8823C9F0EA89FB898081BD
:1003700085FD05C0A889B9898C9186FD0FC00FB68F
:1003800007FCF5CF808185FFF2CFA889B9898C91D0
:1003900085FFEDCFCE010E944701E7CFDF91CF91DE
:1003A000089580E090E0892B29F00E943D018111A1
:1003B0000C94000008952091C5033091C6032817BE
:1003C000390771F49091C3038091C403981741F0E9
:1003D000E091C303F0E0E658FC4F808190E008957F
:1003E0008FEF9FEF089508951F93CF93DF93DC0164
:1003F0005C962D913C915D972115310539F481E092
:1004000090E013969C938E9312973DC05196ED9178
:10041000FC91529750969C915097892F80951FB7C9
:100420005E964C915E9741FB772770F941FD609590
:10043000F8944081772311F0492B01C04823408371
:10044000E9012197F1F748E0508160FF02C0592B84
:1004500001C058235083E9012197F1F76695415077
:1004600099F7772321F090818923808303C08081CD
:10047000982B90831FBF5C968D919C915D970197FF
:10048000F1F721E030E0C901DF91CF911F9108958C
:100490002091C5033091C6032817390771F4809164
:1004A000C4032091C30390E0805C9F4F821B91099D
:1004B00060E470E00E94381B089580E090E00895A9
:1004C0002091C5033091C60328173907B9F49091DC
:1004D000C3038091C403981789F0E091C303F0E04F
:1004E000E658FC4F80812091C30330E02F5F3F4FDF
:1004F0002F7333272093C30390E008958FEF9FEF6E
:1005000008951F93CF93DF93EC0188819981009721
:1005100059F1162FDC01ED91FC910190F081E02D55
:100520006E3761F46DE7099588819981DC01ED9161
:10053000FC910190F081E02D6EE50DC06D3759F40E
:100540006DE7099588819981DC01ED91FC9101901D
:10055000F081E02D6DE5099528853985210F311D44
:10056000230F30E039872887DF91CF911F910895BD
:100570000F931F93CF93DF93DC011296ED91FC91C3
:10058000139770E0E617F70719F0EF3FF10541F513
:10059000C901B801ED01411521E0520791F0403148
:1005A0005140F1F40E94571F20E030E048EC52E443
:1005B0000E94D31B698F7A8F8B8F9C8F80E191E093
:1005C00011C00E94571F20E030E048EC52E40E9426
:1005D000D31B6D8B7E8B8F8B988F80E091E002C058
:1005E00080E090E0DF91CF911F910F9108950F93DC
:1005F0001F93FC018281938170E08617970719F0A1
:100600008F3F9105A9F4411584E0580751F040311E
:10061000544071F4018F128F238F348F80E194E066
:1006200009C0058B168B278B308F80E094E002C0C9
:1006300080E090E01F910F9108950F931F93CF9347
:10064000DF93DC011296ED91FC91139770E0E617B1
:10065000F70719F0EF3FF10541F5C901B801ED01C8
:10066000411529E0520791F040315940F1F40E94C0
:10067000551F20E030E048EC52E40E94D31B698F04
:100680007A8F8B8F9C8F80E199E011C00E94551F5B
:1006900020E030E048EC52E40E94D31B6D8B7E8B4F
:1006A0008F8B988F80E099E002C080E090E0DF912E
:1006B000CF911F910F9108950F931F93CF93DF93C5
:1006C000DC011296ED91FC91139770E0E617F707A5
:1006D00019F0EF3FF10579F44430514F61F4C9014D
:1006E000B801ED010E94551F6D877E878F87988B1B
:1006F00084E091EF02C080E090E0DF91CF911F9104
:100700000F9108950F931F93FC014281538170E074
:100710004617570719F04F3F510541F4FC01058773
:1007200016872787308B80E095E002C080E090E05C
:100730001F910F9108950F931F93CF93DF93DC01C7
:100740001296ED91FC91139770E0E617F70719F0F8
:10075000EF3FF10579F441155C4061F4C901B8013E
:10076000ED010E94551F6D877E878F87988B80E0F3
:100770009CE002C080E090E0DF91CF911F910F914B
:1007800008950F931F93CF93DF93DC011296ED91A1
:10079000FC91139770E0E617F70719F0EF3FF105AA
:1007A00079F44034584061F4C901B801ED010E9468
:1007B000551F6D877E878F87988B80E498E002C0F5
:1007C00080E090E0DF91CF911F910F9108950F93FA
:1007D0001F93CF93DF93DC011296ED91FC91139759
:1007E00070E0E617F70719F0EF3FF10579F44115CE
:1007F000564061F4C901B801ED010E94551F6D8793
:100800007E878F87988B80E096E002C080E090E042
:10081000DF91CF911F910F9108958F929F92AF9288
:10082000BF92CF92DF92EF92FF920F931F93CF93DD
:10083000DF937C0148015901FC018281938170E0C2
:100840008617970721F08F3F910509F05CC041158D
:10085000534009F058C0D501C40124E0B695A795CE
:10086000979587952A95D1F7182F1F70BB27AB2D29
:100870009A2D892D282D2F70C22FD0E0670134E0EA
:10088000239FC00CD11C1124BC01CD017F7088278F
:1008900099270E94551F20E030E04AEF53E40E9460
:1008A000D31BF601658B768B878B908F2196CC0FAF
:1008B000DD1FCC0FDD1FCE0DDF1DC501B40154E1DE
:1008C00096958795779567955A95D1F70E94551F0C
:1008D00020E030E04AEF53E40E94D31B6D8B7E8B07
:1008E0008F8B988F163060F4F70134E0139FE00D82
:1008F000F11D1124158A168A178A108E1F5FF2CFF8
:1009000080E093E002C080E090E0DF91CF911F9102
:100910000F91FF90EF90DF90CF90BF90AF909F909E
:100920008F9008958F929F92AF92BF92CF92DF9255
:10093000EF92FF920F931F93CF93DF93D82FC62F81
:1009400049015A01C801B70120E030E04AEF53E401
:100950000E94B61F0E944C1C7F706B01E12CF12C91
:100960008CE0CC0CDD1CEE1CFF1C8A95D1F720E03E
:1009700030E04AEF53E4C501B4010E94B61F0E9463
:100980004C1C7F70CB01A0E0B0E08C299D29AE29E2
:10099000BF2924E0880F991FAA1FBB1F2A95D1F7F2
:1009A000DF708D2B34E0880F991FAA1FBB1F3A956B
:1009B000D1F7CF70BC01CD016C2BDF91CF911F918E
:1009C0000F91FF90EF90DF90CF90BF90AF909F90EE
:1009D0008F9008950F931F93CF93DF93DC011296AE
:1009E000ED91FC91139770E0E617F70719F0EF3FD0
:1009F000F10541F5C901B801ED01411522E05207A9
:100A000091F040315240F1F40E94551F20E030E057
:100A100048EC52E40E94D31B698F7A8F8B8F9C8F96
:100A200080E192E011C00E94551F20E030E040E2DA
:100A300051E40E94D31B6D8B7E8B8F8B988F80E04F
:100A400092E002C080E090E0DF91CF911F910F9182
:100A500008950F931F93CF93DF93DC011296ED91CE
:100A6000FC91139770E0E617F70719F0EF3FF105D7
:100A7000A9F441155A4091F4C901B801ED010E9451
:100A8000551F20E030E040E251E40E94D31B6D8707
:100A90007E878F87988B80E09AE002C080E090E0AC
:100AA000DF91CF911F910F9108950F931F93CF93D3
:100AB000DF93DC011296ED91FC91139770E0E6173D
:100AC000F70719F0EF3FF10561F5C901B801ED0134
:100AD000423021EF5207A1F04330514F11F52AE087
:100AE00030E040E050E00E94AB20CA01B9010E9412
:100AF000551F698F7A8F8B8F9C8F83E091EF13C086
:100B00002AE030E040E050E00E94AB20CA01B90189
:100B10000E94551F6D8B7E8B8F8B988F82E091EF9B
:100B200002C080E090E0DF91CF911F910F91089576
:100B300080E090E0089508950E943B1FEF92FF929D
:100B40000F931F93CF93DF93EC017B018A01888180
:100B50009981009729F02A813B8124173507F8F401
:100B6000B8016F5F7F4F0E94711E009759F0998303
:100B700088831B830A832C813D81232B81F4FC0114
:100B800010820DC088819981009711F00E94D91DB3
:100B9000198218821D821C821B821A8207C01D8343
:100BA0000C83B701888199810E94491FCE01DF9192
:100BB000CF911F910F91FF90EF900895CF93DF9306
:100BC000EC016115710559F0FB0101900020E9F776
:100BD0003197AF01461B570B0E949E050CC08881C0
:100BE0009981009711F00E94D91D198218821D82E7
:100BF0001C821B821A82CE01DF91CF9108951F9231
:100C00000F920FB60F9211242F933F934F935F9340
:100C10006F937F938F939F93AF93BF93EF93FF93C4
:100C200084E094E00E944701FF91EF91BF91AF9162
:100C30009F918F917F916F915F914F913F912F91F4
:100C40000F900FBE0F901F9018951F920F920FB626
:100C50000F9211242F938F939F93EF93FF93E09123
:100C60001404F09115048081E0911A04F0911B04A2
:100C700082FD12C0908180911D048F5F8F7320913F
:100C80001E04821751F0E0911D04F0E0EC5FFB4F71
:100C9000958F80931D0401C08081FF91EF919F91FA
:100CA0008F912F910F900FBE0F901F90189583304A
:100CB00081F028F4813099F08230A1F008958730D6
:100CC000A9F08830B9F08430D1F4809180008F7D14
:100CD00003C0809180008F7780938000089584B551
:100CE0008F7702C084B58F7D84BD08958091B00058
:100CF0008F7703C08091B0008F7D8093B0000895FE
:100D00001F93CF93DF93282F30E0F901E45AFE4F71
:100D10008491F901E85BFE4FD491F901EC5CFE4F40
:100D2000C491CC23C9F0162F81110E945706EC2FD5
:100D3000F0E0EE0FFF1FE05EFE4FA591B4918FB77C
:100D4000F894111105C09C91ED2FE095E92302C0A4
:100D5000EC91ED2BEC938FBFDF91CF911F91089514
:100D6000CF93DF9390E0FC01E85BFE4F2491FC0100
:100D7000EC5CFE4F8491882361F190E0880F991F0D
:100D8000FC01EA5EFE4FC591D491FC01E05EFE4F8E
:100D9000A591B491611109C09FB7F89488812095FD
:100DA00082238883EC912E230BC0623061F49FB7BD
:100DB000F8943881822F809583238883EC912E2BA1
:100DC0002C939FBF06C08FB7F894E8812E2B288301
:100DD0008FBFDF91CF910895FF920F931F93CF9311
:100DE000DF9300D0CDB7DEB77A836983DC012D9124
:100DF0003C91232BB9F18C0161E0FC0186810E94BA
:100E0000B00660E0C8010E9481026981C8010E94A9
:100E100081026A81C8010E94810284E0F82E60E0AC
:100E2000C8010E948102FA94F110F9CFD8011896F6
:100E30006C916095C8010E948102F80111861086AC
:100E400080819181DC01ED91FC910284F385E02D9C
:100E50000995F80180819181892B21F060E08681DC
:100E60000E94B0060F900F90DF91CF911F910F91CC
:100E7000FF9008953FB7F8948091BF039091C0030D
:100E8000A091C103B091C20326B5A89B05C02F3F16
:100E900019F00196A11DB11D3FBFBA2FA92F982FA0
:100EA0008827820F911DA11DB11DBC01CD0142E01B
:100EB000660F771F881F991F4A95D1F708952FB79E
:100EC000F8946091BB037091BC038091BD03909135
:100ED000BE032FBF08951F920F920FB60F921124D9
:100EE0002F933F938F939F93AF93BF938091BB03B7
:100EF0009091BC03A091BD03B091BE033091BA03A1
:100F000023E0230F2D3720F40196A11DB11D05C04C
:100F100026E8230F0296A11DB11D2093BA038093EA
:100F2000BB039093BC03A093BD03B093BE03809119
:100F3000BF039091C003A091C103B091C203019679
:100F4000A11DB11D8093BF039093C003A093C10363
:100F5000B093C203BF91AF919F918F913F912F9119
:100F60000F900FBE0F901F9018951F920F920FB603
:100F70000F9211242F933F934F935F936F937F931F
:100F80008F939F93AF93BF93EF93FF93E091C5032C
:100F9000F091C603309709F451C0968DA685B785A8
:100FA000858591FF04C09C91892329F447C09C91B9
:100FB000892309F043C0A389B4899C9185898095D0
:100FC00089238C93868997890197F1F7608D718DBC
:100FD000A685B785558538E020E0CB010197F1F76C
:100FE000822F90E095958795282F4C91452309F005
:100FF0002068315091F7868D81FD20958091C40342
:1010000090E001968F7399273091C303381749F008
:10101000A091C403B0E0A658BC4F2C938093C403A6
:1010200003C0868D8160868F828D938D0197F1F745
:10103000A389B4899C918589892B8C93FF91EF9129
:10104000BF91AF919F918F917F916F915F914F91E0
:101050003F912F910F900FBE0F901F9018950F93F7
:101060001F93CF93DF9300D000D000D0CDB7DEB771
:101070007A8369832B833C834D835E83DC012D91CE
:101080003C91232BF1F18C0161E0FC0186810E94EF
:10109000B00660E1C8010E9481026981C8010E9416
:1010A00081026A81C8010E9481026B81C8010E948D
:1010B00081026C81C8010E9481026D81C8010E9479
:1010C00081026E81C8010E948102D80118966C913C
:1010D0006095C8010E948102F80111861086808106
:1010E0009181DC01ED91FC910284F385E02D09955D
:1010F000F80180819181892B21F060E086810E9436
:10110000B00626960FB6F894DEBF0FBECDBFDF91B6
:10111000CF911F910F9108950F931F93CF93DF935A
:10112000EC0150E08A819B818417950709F04CC03F
:101130008D8D882309F448C0CB014C81442319F0DC
:101140004130E1F039C04D855E856F857889401763
:1011500051076207730778F408531F4F2F4F3F4F13
:101160000D871E872F87388B2D813E814F815885B3
:1011700060E071E01AC060E071E01CC049895A89E2
:101180006B897C89401751076207730788F40C59F3
:101190001F4F2F4F3F4F098B1A8B2B8B3C8B298571
:1011A0003A854B855C8560E171E00E942F0804C0A0
:1011B00060E171E00E94EC068C818F5F823010F458
:1011C0008C8301C01C821D8EDF91CF911F910F91E6
:1011D00008950F931F93CF93DF93EC0150E08A8122
:1011E0009B818417950709F04CC08D8D882309F4E5
:1011F00048C0CB014C81442319F04130E1F039C0A3
:101200004D855E856F8578894017510762077307A2
:1012100078F40854144F2F4F3F4F0D871E872F87A8
:10122000388B2D813E814F81588560E074E01AC073
:1012300060E074E01CC049895A896B897C89401739
:1012400051076207730788F40854144F2F4F3F4F1C
:10125000098B1A8B2B8B3C8B29853A854B855C85BA
:1012600060E174E00E942F0804C060E174E00E9415
:10127000EC068C818F5F833010F48C8301C01C825C
:101280001D8EDF91CF911F910F9108950F931F93A2
:10129000CF93DF93EC0150E08A819B8184179507FF
:1012A00009F04CC08D8D882309F448C0CB014C81D6
:1012B000442319F04130E1F039C04D855E856F85DA
:1012C0007889401751076207730778F40C501E4F56
:1012D0002F4F3F4F0D871E872F87388B2D813E81E3
:1012E0004F81588560E079E01AC060E079E01CC069
:1012F00049895A896B897C894017510762077307AE
:1013000088F40C501E4F2F4F3F4F098B1A8B2B8B9D
:101310003C8B29853A854B855C8560E179E00E94AC
:101320002F0804C060E179E00E94EC068C818F5F99
:10133000823010F48C8301C01C821D8EDF91CF910E
:101340001F910F9108950F931F93CF93DF93EC019B
:1013500050E08A819B818417950719F58989882334
:1013600001F1CB0149855A856B857C854017510772
:101370006207730788F40C591F4F2F4F3F4F09879F
:101380001A872B873C872D813E814F81588564E0E9
:1013900071EF0E942F0804C064E071EF0E94EC0618
:1013A000198ADF91CF911F910F9108950F931F9389
:1013B000CF93DF93EC0150E08A819B8184179507DE
:1013C00019F58989882301F1CB0149855A856B85F7
:1013D0007C85401751076207730788F40C501E4F35
:1013E0002F4F3F4F09871A872B873C872D813E81DE
:1013F0004F81588560E075E00E942F0804C060E0CE
:1014000075E00E94EC06198ADF91CF911F910F9130
:1014100008950F931F93CF93DF93EC0150E08A81DF
:101420009B818417950719F58989882301F1CB01E0
:1014300049855A856B857C8540175107620773077C
:1014400088F40C591F4F2F4F3F4F09871A872B875E
:101450003C872D813E814F81588560E07CE00E9471
:101460002F0804C060E07CE00E94EC06198ADF913E
:10147000CF911F910F9108950F931F93CF93DF93F7
:10148000EC0150E08A819B818417950719F58989C1
:10149000882301F1CB0149855A856B857C854017EE
:1014A00051076207730788F40C501E4F2F4F3F4FB0
:1014B00009871A872B873C872D813E814F8158856C
:1014C00060E478E00E942F0804C060E478E00E94A5
:1014D000EC06198ADF91CF911F910F9108950F9318
:1014E0001F93CF93DF93EC0150E08A819B81841797
:1014F000950719F58989882301F1CB0149855A851A
:101500006B857C85401751076207730788F4085183
:101510001C4F2F4F3F4F09871A872B873C872D8100
:101520003E814F81588560E076E00E942F0804C01C
:1015300060E076E00E94EC06198ADF91CF911F915E
:101540000F9108950F931F93CF93DF93EC0150E019
:101550008A819B818417950709F051C08DA5882346
:1015600009F44DC0CB0149895A896B897C894017A0
:10157000510762077307F0F5045D1E4F2F4F3F4F71
:10158000098B1A8B2B8B3C8B2C812130F1F058F07E
:101590002230A1F52D853E854F85588960E073E0A6
:1015A0000E942F0825C02D813E814F81588560E023
:1015B00073E00E942F0889859A85AB85BC85892BAD
:1015C0008A2B8B2BA9F081E011C029853A854B85A8
:1015D0005C8560E073E00E942F088D859E85AF8555
:1015E000B889892B8A2B8B2B19F082E08C8306C05B
:1015F0001C8204C060E073E00E94EC061DA6DF912F
:10160000CF911F910F9108950F931F93CF93DF9365
:10161000EC0150E08A819B818417950709F04CC04A
:101620008D8D882309F448C0CB014C81442319F0E7
:101630004130E1F039C04D855E856F85788940176E
:1016400051076207730778F40C501E4F2F4F3F4F1E
:101650000D871E872F87388B2D813E814F815885BE
:1016600060E072E01AC060E072E01CC049895A89EB
:101670006B897C89401751076207730788F40C5007
:101680001E4F2F4F3F4F098B1A8B2B8B3C8B29857D
:101690003A854B855C8560E172E00E942F0804C0AA
:1016A00060E172E00E94EC068C818F5F823010F462
:1016B0008C8301C01C821D8EDF91CF911F910F91F1
:1016C00008950F931F93CF93DF93EC0150E08A812D
:1016D0009B818417950719F58989882301F1CB012E
:1016E00049855A856B857C854017510762077307CA
:1016F00088F40C501E4F2F4F3F4F09871A872B87B6
:101700003C872D813E814F81588560E07AE00E94C0
:101710002F0804C060E07AE00E94EC06198ADF918D
:10172000CF911F910F9108950F931F93CF93DF9344
:10173000EC0150E08A819B818417950709F04CC029
:101740008D8D882309F448C0CB014C81442319F0C6
:101750004130E1F039C04D855E856F85788940174D
:1017600051076207730778F40C501E4F2F4F3F4FFD
:101770000D871E872F87388B2D813E814F8158859D
:1017800062E071EF1AC062E071EF1CC049895A89AA
:101790006B897C89401751076207730788F40C50E6
:1017A0001E4F2F4F3F4F098B1A8B2B8B3C8B29855C
:1017B0003A854B855C8563E071EF0E942F0804C079
:1017C00063E071EF0E94EC068C818F5F823010F431
:1017D0008C8301C01C821D8EDF91CF911F910F91D0
:1017E00008952F923F924F925F926F927F928F92C5
:1017F0009F92AF92BF92CF92DF92EF92FF920F93A0
:101800001F93CF93DF93CDB7DEB728970FB6F89429
:10181000DEBF0FBECDBF1C014D835E836F83788713
:1018200028013901C982DA82EB82FC8281E0D10190
:101830009D968C9320E030E0A901C301B2010E9483
:101840007B1C18165CF520E030E0A901C701B60149
:101850000E947B1C18162CF520E030E0A901C50180
:10186000B4010E947B1C1816FCF420E030E0A901B2
:101870006D8D7E8D8F8D98A10E947B1C1816BCF4F7
:1018800020E030E0A90169A17AA18BA19CA10E946E
:101890007B1C18167CF446E0D42E0EC0DD24D394B5
:1018A0000BC032E0D32E08C023E0D22E05C094E056
:1018B000D92E02C085E0D82E830172012D813E8190
:1018C0004F81588560E08D2D0E949204F10165835F
:1018D000768387839087F2E0FD1540F585017401DA
:1018E00029813A814B815C8162E08D2D0E949204B6
:1018F000D10119966D937D938D939C931C97B4E0C1
:10190000BD15C8F4E9A0FAA00BA11CA12D8D3E8D38
:101910004F8D58A164E08D2D0E949204D1011D9637
:101920006D937D938D939C9350970AC0F10111861E
:10193000128613861486F101158616861786108A7C
:1019400028960FB6F894DEBF0FBECDBFDF91CF91C2
:101950001F910F91FF90EF90DF90CF90BF90AF90CD
:101960009F908F907F906F905F904F903F902F90BF
:101970000895E4E0F4E0A089B18982E08C93A48525
:10198000B5851C92A685B78583E38C93108EA489B8
:10199000B58986E08C93A289B3898C9180618C9300
:1019A000A289B3898C9188608C93A289B3898C9128
:1019B00080688C930288F389E02D80818F7D8083FD
:1019C0000895CF932091D9043091DA04232BA9F103
:1019D000C82F61E08091DF040E94B0068091D90495
:1019E0009091DA04DC01ED91FC910190F081E02D01
:1019F0006EE709958091D9049091DA04DC01ED91AC
:101A0000FC910190F081E02D6C2F09958091D90413
:101A10009091DA04DC01ED91FC910284F385E02DD4
:101A200009958091D9049091DA04892B31F060E016
:101A30008091DF04CF910C94B006CF910895CF939D
:101A4000DF9310920001EFE6F0E080818E7F8083CB
:101A5000C3E6D6E089899A890E94D91D8A859B852B
:101A6000DF91CF910C94D91DCF93DF93CDB7DEB723
:101A700027970FB6F894DEBF0FBECDBF789484B51C
:101A8000826084BD84B5816084BD85B5826085BD7A
:101A900085B5816085BD80916E00816080936E0008
:101AA00010928100809181008260809381008091FA
:101AB00081008160809381008091800081608093AB
:101AC00080008091B10084608093B1008091B0006B
:101AD00081608093B00080917A00846080937A0066
:101AE00080917A00826080937A0080917A00816090
:101AF00080937A0080917A00806880937A001092B7
:101B0000C1000E943A074B015C0168EEC62E63E0FB
:101B1000D62EE12CF12C0E943A07DC01CB0188196A
:101B20009909AA09BB09883E9340A105B10558F05F
:101B300021E0C21AD108E108F10838EE830E33E043
:101B4000931EA11CB11CC114D104E104F10419F7C6
:101B50000E94B90C81E596E09093A2048093A104C1
:101B60008FE396E09093A4048093A3048DE296E023
:101B70009093A6048093A5048BE196E09093A8042B
:101B80008093A7048DEF95E09093AA048093A90415
:101B90008FED95E09093AC048093AB0481EB95E0DE
:101BA0009093AE048093AD0483E895E09093B004E5
:101BB0008093AF0483E595E09093B2048093B104E1
:101BC00081E795E09093B4048093B30487E195E0B6
:101BD0009093B6048093B50485E395E09093B804A0
:101BE0008093B70489EF94E09093BA048093B9048A
:101BF00087EE94E09093BC048093BB041092BE04E3
:101C00001092BD041092C0041092BF041092C2043E
:101C10001092C1041092C4041092C3041092C6041E
:101C20001092C5041092C8041092C7041092CA04FE
:101C30001092C9041092CC041092CB041092CE04DE
:101C40001092CD041092D0041092CF041092D204BE
:101C50001092D1041092D4041092D3041092D6049E
:101C60001092D5041092D8041092D7041092E30475
:101C700080E08C3161F091E0980FE82FF0E0EE0FFA
:101C8000FF1FEF55FB4F20813181232B49F48093B7
:101C9000E304E091DD04F091DE04309719F41FC0F5
:101CA000892FE7CF8BEF91E0918380838091C503EB
:101CB0009091C6038E179F0759F4A389B4899C910C
:101CC0008589809589238C931092C6031092C50351
:101CD000CF010E94D91D1092DE041092DD0482E033
:101CE00090E09093E0048093DF048FE190E00E9405
:101CF000441D6C01DC0113961C921E92129788EE13
:101D000093E0A0E0B0E0F60184839583A683B783D7
:101D10008BEF91E091838083178A168A118E108E43
:101D2000138E128E158E148E668D6E7F6260668F96
:101D30006695617081E0682782E00E94800661E01C
:101D400082E00E94B0063AE4E32E31E0F32EF70180
:101D50008491D60150968C93509706E311E0F801D8
:101D6000849190E0880F991F805E9E4FFC01259121
:101D7000349152963C932E93519760E082E00E94FA
:101D8000B006F601868D81FD04C061E082E00E940C
:101D9000800682E0D6011C968C931C97F701E49094
:101DA0001D96EC921D97F8010491E02FF0E0EE0FE4
:101DB000FF1FE65DFE4F859194911F969C938E9335
:101DC0001E97D092DE04C092DD04D092DA04C09255
:101DD000D90482E490E05D969C938E935C972FE00B
:101DE00030E057963C932E93569720E430E0599676
:101DF0003C932E93589727E230E05B963C932E93CA
:101E00005A97209168002460209368002DE630E006
:101E100054963C932E93539724E055962C93019718
:101E2000F1F7F601828D938D892B49F1E091C5037D
:101E3000F091C603EC15FD0511F1309739F0A38937
:101E4000B4899C918589809589238C93D6015E966F
:101E50008C915E978E7F5E968C935E971092C403F2
:101E60001092C303D092C603C092C5035396ED915E
:101E7000FC915497908155968C91892B8083109278
:101E8000E2041092E10499E288E10FB6F894A89573
:101E9000809360000FBE90936000A895412C512C58
:101EA00090E8692E9FE3792EA895A895809101016D
:101EB000882381F0109201010E94B90C25E030E0E6
:101EC00040E050E0209308043093090440930A0452
:101ED00050930B040E945F076B017C0184E094E047
:101EE0000E943101892B69F40E945F07DC01CB015C
:101EF0008C199D09AE09BF090697A105B10570F3BC
:101F00005FC284E094E00E943101892B09F458C239
:101F100007EE13E0A12CB12C0E945F0760930C0424
:101F200070930D0480930E0490930F04E0910404C9
:101F3000F09105040680F781E02D84E094E0099596
:101F400097FD04C082309105F9F429C00E945F0713
:101F5000C0900C04D0900D04E0900E04F0900F049B
:101F6000DC01CB018C199D09AE09BF09C0900804A2
:101F7000D0900904E0900A04F0900B048C159D05A4
:101F8000AE05BF0598F20BC0D8018D938D01BFEF50
:101F9000AB1ABB0AEFE0AE16B10409F0BDCFB092A8
:101FA000E603A092E503C5010797099708F008C268
:101FB000209186063091870637FD25C03327F90129
:101FC000E45AFE4F8491F901E85BFE4F0491F90158
:101FD000EC5CFE4F1491112379F081110E94570699
:101FE000E12FF0E0EE0FFF1FE65DFE4FA591B491EB
:101FF000EC910E2361E009F460E081E068278091B4
:1020000086060E948006AA0CBB1C80E090E08A1520
:102010009B0588F4FC01F595E795E951FC4F20817B
:10202000FC01E953FC4F322F32953F7030832F7003
:1020300021830296ECCFA50142505109E7ECF3E071
:1020400080E090E02191213029F001968A159B05CE
:10205000C9F71BC020812B30C1F79C01DC01A953BB
:10206000BC4F12966C91623081F7DF0111971C9280
:102070002F5F3F4F2417350740F7D901A953BC4FB5
:1020800012966C9112976C93F3CF1FEF1093630627
:1020900010926406109265061092660610928206EF
:1020A0001092810610928006109283061092840688
:1020B0001092850610937A0667EC72E084E796E04A
:1020C0000E94DE053091C703309382068091CA03D7
:1020D000809381066091CE03862F81708093800665
:1020E0008091D1032091D203F0E18F9F200D112424
:1020F000209383064091CF0380E1489FA0011124E3
:102100008091D003482B9091CD03A0E19A9FC0010C
:102110001124862B840F809384068095822B8093D4
:102120008506E091CC03E0937A068091C803B0E184
:102130003B9F800D1124803770F010926406805709
:102140008093630681E080936606E11117C081E009
:102150008093650623C0803548F091E09093640633
:1021600080558093630690936606EFCF813440F4E8
:10217000109264061093630610926606109265062C
:102180008E2FEE0F990BAA0BBB0B8031910508F037
:1021900068C0FC01EC5CFF4F0C944C1B60ED72E0DE
:1021A00062C069ED72E043C062EE72E01EC06BEE89
:1021B00072E03DC064EF72E018C06DEF72E084E73A
:1021C00096E00E94DE0580E090E0A8ECB2E4809307
:1021D0007B0690937C06A0937D06B0937E064FC04D
:1021E00066E073E024C06FE073E084E796E00E944D
:1021F000DE058DEC9CECACECBDE380937B0690930C
:102200007C06A0937D06B0937E0621C068E173E052
:102210002AC061E273E027C06AE273E024C063E38E
:1022200073E021C06CE373E01EC065E473E084E7F3
:1022300096E00E94DE052DEC3CEC4CEC5DE3209337
:102240007B0630937C0640937D0650937E0681E0AA
:1022500080937F0616C06EE473E005C067E573E007
:1022600002C060E673E084E796E00E94DE054092DB
:102270007B0650927C0660927D0670927E061092DC
:102280007F069091CF031091CE038091D0030091EF
:10229000CD03612F70E09B019830B8F440E1049FBA
:1022A000200D311D1124682F70E050E1959F600DC5
:1022B000711D1124762F6627620F731F769567951F
:1022C00080E090E00E94551F18C0A0E10A9F200DF9
:1022D000311D11249770682F70E0B0E19B9F600D55
:1022E000711D1124762F6627620F731F76956795EF
:1022F00080E090E00E94551F905820917B0630911D
:102300007C0640917D0650917E060E94B61F609328
:102310006706709368068093690690936A06209119
:102320007B0630917C0640917D0650917E0660913F
:102330006706709168068091690690916A060E940E
:10234000D31B0E94451C70936C0660936B068091B2
:102350007A0681110DC0812F90E0E0E10E9F800D83
:10236000911D11249C01359527952093730602C178
:1023700069E673E08DE696E00E94DE05FBC02091E1
:1023800066012F3F09F0F3C180936601C09262019C
:10239000D0926301E0926401F09265011D823324C2
:1023A00033944D81842F90E0FC013197EC30F1059E
:1023B00008F48BC431106AC71092F7031092F60329
:1023C0008091F6039091F70301969093F703809321
:1023D000F6038039914008F0CAC0C0901601D09031
:1023E0001701E0901801F09019018091D9049091A3
:1023F000DA04892B09F4BBC00E945F074B015C0122
:102400002090E5043090E6048091D9049091DA049C
:102410002114310409F46FC0892B09F469C08101CA
:10242000035C1F4FF80180819181A281B3818816DE
:102430009906AA06BB0690F1DD24EE24FF24C11400
:10244000D104E104F10451F188E90E94E10CA701F3
:102450009601253631054105510520F024E630E08E
:1024600040E050E061E071EF89ED94E00E942F08B8
:10247000D501C40184549E4FAF4FBF4FF8018083F4
:102480009183A283B383D501C4010C96A11DB11D14
:10249000F10181AF92AFA3AFB4AF2AC0F10181AD1A
:1024A00092ADA3ADB4AD88169906AA06BB0600F19D
:1024B00080AD8C3108F010AED101D8968C91D897B0
:1024C00091E0980FD8969C93F101E80FF11DE80F69
:1024D000F11D1081812F0E94E10CD501C4010C96E1
:1024E000A11DB11DF10181AF92AFA3AFB4AF01C087
:1024F0001FEF512F1DC0DC01ED91FC910480F5818F
:10250000E02D0995892B99F18091D9049091DA04F5
:10251000DC01ED91FC910680F781E02D0995909109
:10252000E4049E3711F4582F01C05FEF8093E40458
:102530005F3FE9F0F12C8091E304F816C0F4EF2D31
:10254000F0E0EE0FFF1FEF55FB4F80819181DC0122
:10255000ED91FC910190F081E02D95018401452FD2
:1025600069ED74E05E830995F3945E81E4CF0E9487
:10257000D1019ACCE0917A061E160CF021CFC090C2
:102580006706D0906806E0906906F0906A06809130
:1025900081064E2F50E0FA013197EE30F10508F038
:1025A00050C7EC5BFF4F0C944C1B24E0829FF00162
:1025B0001124E355FE4FC082D182E282F382811161
:1025C0001CC020E030E04CE951E46091AD01709115
:1025D000AE018091AF019091B0010E94B61F21E041
:1025E0002093F8040E944C1C6093EC047093ED045B
:1025F0008093EE049093EF0424C701EB11E01D8259
:10260000D801CD90DD90ED90FD908D0120E030E07F
:1026100040E85FEBC701B6010E947B1C18167CF4F2
:10262000BD81BC3060F424E0B29FF0011124E35975
:10263000FE4FC082D182E282F382BF5FBD8331E070
:102640000D3E1307E9F6912C00E513EC47E44F83A8
:102650008DE691E09B838A83B12C90E5A92E93ECC3
:10266000998327EC322E812C212C1C82BD818B1664
:1026700071F1AA81BB81CD90DD90ED90FD90BB837F
:10268000AA8320E030E0A901C701B6010E947B1CAB
:102690001816DCF4292D302F412F5F81C701B601B8
:1026A0000E94501F18160CF090C62B2D3A2D498110
:1026B000532DC701B6010E947B1C87FD06C0BC2CB0
:1026C000AD2CE9823F2C222423948394CFCF8B2DF1
:1026D0009A2DA981B32D8093000490930104A093B7
:1026E0000204B0930304892D902FA12FBF81809302
:1026F000690190936A01A0936B01B0936C01312C36
:10270000EC81EE2309F4A8C272C2209168012F3F28
:1027100041F0482F50E0022E000C330B24173507F0
:1027200071F480936801C092FC03D092FD03E092A3
:10273000FE03F092FF031D82312C212C58C2209100
:1027400067012F3F39F0022E000C330B2417350799
:1027500009F077C680936701C092F803D092F9031D
:10276000E092FA03F092FB031D82312C78C2022E14
:10277000000C330B482F50E02417350709F061C6D1
:1027800003CE209161012F3F49F0022E000C330B44
:10279000482F50E02417350709F053C68093610194
:1027A00081E08093620620E030E040EB50E4C70116
:1027B000B6010E94B61F0E944C1C6093560670938F
:1027C000570680935806909359063BC620916001A6
:1027D0002F3F49F0022E000C330B482F50E02417F6
:1027E000350709F02EC680936001C701B6010E942B
:1027F0004C1C60935C0170935D0180935E0190932B
:102800005F0121E020938205609376057093770540
:10281000809378059093790514C620915B012F3F32
:1028200041F0022E000C330B482F50E024173507DF
:1028300059F480935B01C0925701D0925801E09205
:102840005901F0925A010CC020E030E848E853ECFE
:1028500020935701309358014093590150935A01E6
:10286000209156012F3F41F0022E000C330B482FD0
:1028700050E02417350759F480935601C092520155
:10288000D0925301E0925401F09255010CC080E0C7
:1028900090E8A8E8B3EC8093520190935301A09381
:1028A0005401B0935501C0905201D0905301E09073
:1028B0005401F09055016091570170915801809139
:1028C000590190915A0121E0209370050E94D01C7B
:1028D0000E94451C609358057093590580935A05D2
:1028E00090935B05C701B6010E94D01C0E94451C55
:1028F00060935C0570935D0580935E0590935F0522
:10290000A0C5209151012F3F49F0022E000C330B3E
:10291000482F50E02417350709F093C580935101E3
:1029200081E080933E0620E030E044EB53E4C701B1
:10293000B6010E94501F87FF1CC020E030E0A901B3
:10294000C701B6010E947B1C87FD13C020E030E068
:1029500048EC52E4C701B6010E94B61F0E944C1C0D
:102960006093320670933306809334069093350655
:1029700068C520E030E044EB53E4C701B6010E9493
:10298000501F811109C01092320610923306109226
:1029900034061092350655C510923E0652C5209158
:1029A00050012F3F49F0022E000C330B482F50E00E
:1029B0002417350709F045C580935001C0924C019A
:1029C000D0924D01E0924E01F0924F01E7CC209160
:1029D0004B012F3F49F0022E000C330B482F50E0E3
:1029E0002417350709F02DC580934B0181E08093B2
:1029F0005006C701B6010E944C1C609344067093B8
:102A0000450680934606909347061BC520914A01D0
:102A10002F3F49F0022E000C330B482F50E02417B3
:102A2000350709F00EC580934A01C701B6010E941F
:102A30004C1C6B017C0160934601709347018093AD
:102A40004801909349010E94551F4B015C0181E0B0
:102A500080932C06C501B4010E944C1C6093200693
:102A600070932106809322069093230695E6C9165B
:102A7000D104E104F10468F024E630E040E050E0E5
:102A800020931A0130931B0140931C0150931D01A8
:102A900029C0CD28CE28CF2849F410921A011092CF
:102AA0001B0110921C0110921D011CC0C501B40134
:102AB0000E94881C20E030E040EA51E40E94B61FEA
:102AC0009B01AC0160E070E088EC92E40E94661B20
:102AD0000E944C1C60931A0170931B0180931C018F
:102AE00090931D016091160170911701809118015A
:102AF00090911901EAE1F1E0019111912191319157
:102B0000600F711F821F931F31E0E234F307A1F7BA
:102B10002BE030E040E050E00E94AB202093160113
:102B20003093170140931801509319018AC42091E2
:102B300015012F3F49F0022E000C330B482F50E0B7
:102B40002417350709F07DC480931501C092110147
:102B5000D0921201E0921301F09214013DC4209131
:102B600010012F3F49F0022E000C330B482F50E08C
:102B70002417350709F065C480931001C0920C0139
:102B8000D0920D01E0920E01F0920F0125C4209128
:102B90000B012F3F49F0022E000C330B482F50E061
:102BA0002417350709F04DC480930B01C09207012B
:102BB000D0920801E0920901F0920A01CDC3209160
:102BC00006012F3F49F0022E000C330B482F50E036
:102BD0002417350709F035C480930601C09202011D
:102BE000D0920301E0920401F0920501B5C3C090B8
:102BF0006901D0906A01E0906B01F0906C016091E6
:102C0000FC037091FD038091FE039091FF0321E08E
:102C100020931A0620E030E040E251E40E94B61F03
:102C20000E944C1C60930206709303068093040676
:102C30009093050620E030E048EC52E4C701B6016D
:102C40000E94B61F0E944C1C6093060670930706F4
:102C50008093080690930906222009F4A2CBC09025
:102C60000004D0900104E0900204F090030460910D
:102C7000F8037091F9038091FA039091FB0321E02E
:102C80002093FC0520E030E040E251E40E94B61FB2
:102C90000E944C1C6093E4057093E5058093E60563
:102CA0009093E70520E030E048EC52E4C701B6011C
:102CB0000E94B61F0E944C1C6093E8057093E905C2
:102CC0008093EA059093EB056CCBEE5AFF4F409151
:102CD0006D0150916E0160916F01709170010C94C3
:102CE0004C1B1F921F921F921F921F921F921F92A6
:102CF0001F92812C912C540175016401950184016E
:102D000031C00091710110917201209173013091D5
:102D100074011F921F921F921F921F921F921F9267
:102D20001F92812C912C5401750164011BC0C0902D
:102D30007501D0907601E0907701F09078010091D4
:102D400071011091720120917301309174011F92F1
:102D50001F921F921F921F921F921F921F92812CEF
:102D6000912C540181EB95E089C28090790190907B
:102D70007A01A0907B01B0907C01C0907501D09049
:102D80007601E0907701F090780100917101109147
:102D9000720120917301309174011F921F921F9252
:102DA0001F921F921F921F921F92DCCF8090790179
:102DB00090907A01A0907B01B0907C01C090750149
:102DC000D0907601E0907701F09078010091710148
:102DD0001091720120917301309174011F921F9222
:102DE0001F921F9224C08090790190907A01A09048
:102DF0007B01B0907C01C0907501D0907601E0908D
:102E00007701F09078010091710110917201209189
:102E1000730130917401809184018F9380918301BB
:102E20008F93809182018F93809181018F93809104
:102E300080018F9380917F018F9380917E018F938A
:102E400080917D018F938ECF8090790190907A014F
:102E5000A0907B01B0907C01C0907501D09076016C
:102E6000E0907701F090780100917101109172016A
:102E70002091730130917401809184018F9380912E
:102E800083018F93809182018F93809181018F9331
:102E9000809180018F9380917F018F9380917E013B
:102EA0008F9380917D018F9381EB95E00E94F10BD0
:102EB0004091850150918601609187017091880150
:102EC0001F921F921F921F921F921F921F921F927A
:102ED000812C912C54017501640195018401CCC1B0
:102EE0008090790190907A01A0907B01B0907C0154
:102EF000C0907501D0907601E0907701F090780154
:102F0000009171011091720120917301309174014F
:102F1000809184018F93809183018F9380918201AE
:102F20008F93809181018F93809180018F93809105
:102F30007F018F9380917E018F9380917D018F938C
:102F400081EB95E00E94F10B0091890110918A01BB
:102F500020918B0130918C01409185015091860127
:102F600060918701709188011F921F921F921F929A
:102F70001F921F921F921F92812C912C5401750158
:102F800064017AC18090790190907A01A0907B01D0
:102F9000B0907C01C0907501D0907601E0907701EF
:102FA000F0907801009171011091720120917301EC
:102FB00030917401809184018F93809183018F936C
:102FC000809182018F93809181018F938091800104
:102FD0008F9380917F018F9380917E018F93809159
:102FE0007D018F9381EB95E00E94F10BC0908D01E4
:102FF000D0908E01E0908F01F090900100918901B6
:1030000010918A0120918B0130918C0140918501B2
:103010005091860160918701709188011F921F92E3
:103020001F921F921F921F921F921F92812C912C10
:10303000540122C18090790190907A01A0907B0187
:10304000B0907C01C0907501D0907601E09077013E
:10305000F09078010091710110917201209173013B
:1030600030917401809184018F93809183018F93BB
:10307000809182018F93809181018F938091800153
:103080008F9380917F018F9380917E018F938091A8
:103090007D018F9381EB95E00E94F10B809091016F
:1030A00090909201A0909301B0909401C0908D01F6
:1030B000D0908E01E0908F01F090900100918901F5
:1030C00010918A0120918B0130918C0140918501F2
:1030D0005091860160918701709188011F921F9223
:1030E0001F921F921F921F921F921F92C5C0809025
:1030F000790190907A01A0907B01B0907C01C09002
:103100007501D0907601E0907701F0907801009100
:1031100071011091720120917301309174018091BD
:1031200084018F93809183018F93809182018F938B
:10313000809181018F93809180018F9380917F0195
:103140008F9380917E018F9380917D018F9381EB8E
:1031500095E00E94F10B8090910190909201A090D7
:103160009301B0909401C0908D01D0908E01E090B9
:103170008F01F09090010091890110918A012091B6
:103180008B0130918C0140918501509186016091B5
:103190008701709188011F921F921F921F9260C039
:1031A0008090790190907A01A0907B01B0907C0191
:1031B000C0907501D0907601E0907701F090780191
:1031C000009171011091720120917301309174018D
:1031D000809184018F93809183018F9380918201EC
:1031E0008F93809181018F93809180018F93809143
:1031F0007F018F9380917E018F9380917D018F93CA
:1032000081EB95E00E94F10B8090910190909201EA
:10321000A0909301B0909401C0908D01D0908E0148
:10322000E0908F01F09090010091890110918A0146
:1032300020918B0130918C01409185015091860144
:10324000609187017091880180919C018F9380919A
:103250009B018F9380919A018F93809199018F9315
:10326000809198018F93809197018F93809196011F
:103270008F93809195018F9383E895E00E94F10BE5
:103280000FB6F894DEBF0FBECDBF94C88090620128
:1032900090906301A0906401B0906501C0904C01D2
:1032A000D0904D01E0904E01F0904F0181E080936D
:1032B000160520E030E04AEF53ECC701B6010E944A
:1032C000501F87FF0DC020E533EC40E050E0209315
:1032D000FE043093FF04409300055093010529C07C
:1032E00020E030EA4CE056E4C701B6010E947B1CA6
:1032F00018166CF480EA9BEBADE0B0E08093FE041E
:103300009093FF04A0930005B093010512C020E044
:1033100030E048EC52E4C701B6010E94B61F0E949B
:10332000451C6093FE047093FF0480930005909306
:10333000010520E030E048EC52E4C501B4010E94F0
:10334000B61F0E94451C609302057093030580938D
:1033500004059093050530C8C0900201D090030188
:10336000E0900401F090050160910701709108015F
:103370008091090190910A0121E02093340520E019
:1033800030E040E251E40E94B61F0E944C1C609362
:103390001C0570931D0580931E0590931F0520E06A
:1033A00030E040E251E4C701B6010E94B61F0E941E
:1033B0004C1C609320057093210580932205909307
:1033C0002305312C1D820C94D1119C2C0D2D1E2D0A
:1033D000FF82B1E0BC8369C9C0900C01D0900D019F
:1033E000E0900E01F0900F016091110170911201B7
:1033F000809113019091140121E02093520520E067
:1034000030E048EC52E40E94B61F0E944C1C6093CE
:103410003A0570933B0580933C0590933D0520E071
:1034200030E048EC52E4C701B6010E94B61F0E948A
:103430004C1C60933E0570933F058093400590932C
:1034400041051D82312C0C94D111EF92FF920F9304
:103450001F93CF93DF93E4E0F4E01382128288EEAF
:1034600093E0A0E0B0E084839583A683B78383E4F0
:1034700092E09183808385EC90E09587848784EC4B
:1034800090E09787868780EC90E0918B808B81EC31
:1034900090E0938B828B82EC90E0958B848B86EC12
:1034A000E82EF12CF78AE68A118E128E138E148E76
:1034B000C3E6D6E01B861A861D861C861F861E86DE
:1034C00040E050E06AEE72E08DE696E00E949E05D4
:1034D0001A8A198A1C8A1B8A1E8A1D8A40E050E0BB
:1034E0006AEE72E084E796E00E949E050DE010E02F
:1034F0001CA30BA361E08DE00E94B006E1E5F6E0BD
:1035000013821282148283EC92E091838083EFE332
:10351000F6E081EA90E09383828314828BEB92E061
:1035200091838083EDE2F6E082E290E093838283F0
:10353000148283EB92E091838083EBE1F6E083E8F1
:1035400090E09383828314828BEA92E0918380835C
:10355000EDEFF5E084EE90E093838283148283EABA
:1035600092E091838083EFEDF5E025E430E0338352
:103570002283148291838083E1EBF5E0F382E2827F
:1035800014828BE992E091838083E3E8F5E027E6FB
:1035900030E033832283148291838083E1E7F5E076
:1035A00088E490E093838283148283E992E091839C
:1035B0008083E3E5F5E089EE90E0938382831482D3
:1035C0008BE892E091838083E5E3F5E08AE690E082
:1035D00093838283148283E892E091838083E7E17E
:1035E000F5E08BEC90E09383828314828BE792E08A
:1035F00091838083E9EFF4E08CEA90E09383828307
:10360000148283E792E091838083E7EEF4E01383F2
:10361000028314828BE692E091838083E1EAF4E0F6
:1036200013AE12AE11AE10AE15AE14AE81E490E042
:103630000E94441D28E3E7E0F2E0DC0101900D92D6
:103640002A95E1F7FC0110AE11AE12AE13AE14AE26
:10365000FD9610821182128213829093E604809369
:10366000E504DF91CF911F910F91FF90EF900895A6
:1036700097FB072E16F4009407D077FD09D00E941F
:10368000521B07FC05D03EF4909581959F4F0895FD
:10369000709561957F4F0895EE0FFF1F0590F4918F
:1036A000E02D0994AA1BBB1B51E107C0AA1FBB1F39
:1036B000A617B70710F0A61BB70B881F991F5A95BE
:1036C000A9F780959095BC01CD0108955058BB276E
:1036D000AA270E947E1B0C943A200E942C2038F0CE
:1036E0000E94332020F039F49F3F19F426F40C9403
:1036F00029200EF4E095E7FB0C942320E92F0E948B
:103700004B2058F3BA17620773078407950720F018
:1037100079F4A6F50C946D200EF4E0950B2EBA2FDB
:10372000A02D0B01B90190010C01CA01A0011124C7
:10373000FF27591B99F0593F50F4503E68F11A1673
:10374000F040A22F232F342F4427585FF3CF469504
:1037500037952795A795F0405395C9F77EF41F1626
:10376000BA0B620B730B840BBAF09150A1F0FF0FF0
:10377000BB1F661F771F881FC2F70EC0BA0F621FDC
:10378000731F841F48F4879577956795B795F795CC
:103790009E3F08F0B0CF9395880F08F09927EE0F61
:1037A0009795879508950E94E71B0C943A200E94F4
:1037B000332058F00E942C2040F029F45F3F29F07C
:1037C0000C94232051110C946E200C9429200E94FB
:1037D0004B2068F39923B1F3552391F3951B550BB7
:1037E000BB27AA2762177307840738F09F5F5F4FD4
:1037F000220F331F441FAA1FA9F335D00E2E3AF013
:10380000E0E832D091505040E695001CCAF72BD02A
:10381000FE2F29D0660F771F881FBB1F261737077B
:103820004807AB07B0E809F0BB0B802DBF01FF27AD
:1038300093585F4F3AF09E3F510578F00C94232047
:103840000C946E205F3FE4F3983ED4F38695779511
:103850006795B795F7959F5FC9F7880F911D969566
:10386000879597F90895E1E0660F771F881FBB1FC2
:10387000621773078407BA0720F0621B730B840B6F
:10388000BA0BEE1F88F7E09508950E944C1C6894CF
:10389000B1110C946E2008950E94532088F09F5718
:1038A00098F0B92F9927B751B0F0E1F0660F771F64
:1038B000881F991F1AF0BA95C9F714C0B13091F05A
:1038C0000E946D20B1E008950C946D20672F782F31
:1038D0008827B85F39F0B93FCCF38695779567951F
:1038E000B395D9F73EF490958095709561957F4F8B
:1038F0008F4F9F4F08950E94921F08F48FEF0895F5
:1039000016F00C940F1D0C94292068940C9423201D
:103910000E945320A8F39923C1F3AEF3DF93CF9312
:103920001F930F93FF92C92FDD2788232AF0219739
:10393000660F771F881FDAF720E030E040E85FEB82
:103940009FE3883920F0803E38F021968F770E94DF
:10395000671BECEBF0E004C00E94671BE9EEF0E0AF
:103960000E941D1D8B01BE01EC01FB2E6F577109DA
:103970007595771F880B990B0E94571F28E132E736
:1039800041E35FE30E94C91FAF2D9801AE01FF9094
:103990000F911F91CF91DF910E947E1B0C943A20D2
:1039A0000E945320E8F09E37E8F09639B8F49E382C
:1039B00048F4672F782F8827985FF9CF86957795F9
:1039C000679593959539D0F3B62FB1706B0F711D34
:1039D000811D20F487957795679593950C94F41C39
:1039E0000C940F1D0C946E20882371F4772321F022
:1039F0009850872B762F07C0662311F499270DC0A6
:103A00009051862B70E060E02AF09A95660F771F40
:103A1000881FDAF7880F9695879597F908959F3F45
:103A200031F0915020F4879577956795B795880F79
:103A3000911D9695879597F90895DF93CF931F93DE
:103A40000F93FF92EF92DF927B018C01689406C086
:103A5000DA2EEF010E94C91FFE01E894A59125917D
:103A6000359145915591A6F3EF010E947E1BFE0111
:103A70009701A801DA9469F7DF90EF90FF900F911A
:103A80001F91CF91DF910895CF93DF9382309105FD
:103A900010F482E090E0E0918A06F0918B0620E03D
:103AA00030E0C0E0D0E0309711F1408151814817FB
:103AB0005907C0F04817590761F482819381209714
:103AC00019F09B838A832BC090938B0680938A0680
:103AD00026C02115310519F04217530718F49A0131
:103AE000BE01DF01EF010280F381E02DDCCF211563
:103AF000310509F1281B390B2430310590F4129659
:103B00008D919C9113976115710521F0FB019383B1
:103B1000828304C090938B0680938A06FD013296BF
:103B200044C0FD01E20FF31F8193919322503109AC
:103B30002D933C933AC02091880630918906232B1F
:103B400041F42091EF013091F001309389062093E8
:103B500088062091ED013091EE012115310541F4E7
:103B60002DB73EB74091F1015091F201241B350B66
:103B7000E0918806F0918906E217F307A0F42E1B66
:103B80003F0B2817390778F0AC014E5F5F4F2417C1
:103B9000350748F04E0F5F1F509389064093880603
:103BA0008193919302C0E0E0F0E0CF01DF91CF91EB
:103BB00008950F931F93CF93DF93009709F48CC060
:103BC000FC0132971382128200918A0610918B06B3
:103BD0000115110581F420813181820F931F2091FD
:103BE0008806309189062817390779F5F0938906F8
:103BF000E093880671C0D80140E050E0AE17BF07DF
:103C000050F412962D913C911397AD012115310579
:103C100009F1D901F3CF9D01DA0133832283608159
:103C20007181860F971F8217930769F4EC01288131
:103C30003981260F371F2E5F3F4F318320838A81C2
:103C40009B8193838283452B29F4F0938B06E09329
:103C50008A0642C01396FC93EE931297ED014991A8
:103C600059919E01240F351FE217F30771F48081EB
:103C70009181840F951F029611969C938E93828159
:103C8000938113969C938E931297E0E0F0E0D80115
:103C900012968D919C911397009719F0F8018C0161
:103CA000F6CF8D919C9198012E5F3F4F820F931F0D
:103CB00020918806309189062817390769F43097D2
:103CC00029F410928B0610928A0602C01382128287
:103CD0001093890600938806DF91CF911F910F9171
:103CE0000895A0E0B0E0E7E7FEE10C947820EC0155
:103CF000009721F4CB010E94441DB8C0FC01E60FDF
:103D0000F71F9C0122503109E217F30708F4ACC0F9
:103D1000D9010D911C91119706171707B0F00530C6
:103D2000110508F49FC0C80104978617970708F487
:103D300099C002501109061B170B019311936D9343
:103D40007C93CF010E94D91D8DC05B01A01AB10ADE
:103D50004C01800E911EA0918A06B0918B0640E026
:103D600050E0E12CF12C109709F44AC0A815B905D0
:103D7000D1F56D907C901197630182E0C80ED11C43
:103D8000CA14DB0480F1A3014A195B096A0182E0CD
:103D9000C80ED11C1296BC9012971396AC91B5E048
:103DA000CB16D10440F0B282A38351834083D90162
:103DB0006D937C930AC00E5F1F4FC301800F911F4C
:103DC000F90191838083EB2DFA2FE114F10431F096
:103DD000D7011396FC93EE93129744C0F0938B0691
:103DE000E0938A063FC08D919C911197481759071F
:103DF00008F4AC017D0112960D90BC91A02DB3CFBB
:103E0000809188069091890688159905E1F44617F6
:103E10005707C8F48091ED019091EE01009741F4AD
:103E20008DB79EB74091F1015091F201841B950B23
:103E3000E817F907C8F4F0938906E0938806F901BA
:103E4000718360830FC0CB010E94441D7C010097E9
:103E500059F0A801BE010E94401FCE010E94D91D49
:103E6000C70104C0CE0102C080E090E0CDB7DEB74C
:103E7000EEE00C94942081E090E0F8940C94CD2036
:103E8000FB01DC0102C001900D9241505040D8F777
:103E90000895FB01DC0101900D920020E1F70895E7
:103EA0000E94921F08F481E00895E89409C097FBEE
:103EB0003EF490958095709561957F4F8F4F9F4F01
:103EC0009923A9F0F92F96E9BB279395F695879545
:103ED00077956795B795F111F8CFFAF4BB0F11F408
:103EE00060FF1BC06F5F7F4F8F4F9F4F16C08823AF
:103EF00011F096E911C0772321F09EE8872F762FE5
:103F000005C0662371F096E8862F70E060E02AF025
:103F10009A95660F771F881FDAF7880F9695879511
:103F200097F90895990F0008550FAA0BE0E8FEEFE6
:103F300016161706E807F907C0F012161306E4076D
:103F4000F50798F0621B730B840B950B39F40A2666
:103F500061F0232B242B252B21F408950A2609F444
:103F6000A140A6958FEF811D811D08950E94C91F54
:103F70000C943A200E942C2038F00E94332020F02C
:103F8000952311F00C9423200C94292011240C94D7
:103F90006E200E944B2070F3959FC1F3950F50E067
:103FA000551F629FF001729FBB27F00DB11D639FEB
:103FB000AA27F00DB11DAA1F649F6627B00DA11D91
:103FC000661F829F2227B00DA11D621F739FB00D37
:103FD000A11D621F839FA00D611D221F749F3327A7
:103FE000A00D611D231F849F600D211D822F762F40
:103FF0006A2F11249F5750409AF0F1F088234AF01D
:10400000EE0FFF1FBB1F661F771F881F9150504088
:10401000A9F79E3F510580F00C9423200C946E204C
:104020005F3FE4F3983ED4F3869577956795B7950F
:10403000F795E7959F5FC1F7FE2B880F911D969529
:10404000879597F9089597F99F6780E870E060E099
:1040500008959FEF80EC089500240A941616170621
:1040600018060906089500240A9412161306140669
:1040700005060895092E0394000C11F4882352F0CC
:10408000BB0F40F4BF2B11F460FF04C06F5F7F4F84
:104090008F4F9F4F089557FD9058440F551F59F06B
:1040A0005F3F71F04795880F97FB991F61F09F3F25
:1040B00079F087950895121613061406551FF2CF4E
:1040C0004695F1DF08C0161617061806991FF1CF9E
:1040D00086957105610508940895E894BB276627C5
:1040E0007727CB0197F908952F923F924F925F92D5
:1040F0006F927F928F929F92AF92BF92CF92DF92F8
:10410000EF92FF920F931F93CF93DF93CDB7DEB75C
:10411000CA1BDB0B0FB6F894DEBF0FBECDBF0994F0
:104120002A88398848885F846E847D848C849B8447
:10413000AA84B984C884DF80EE80FD800C811B8155
:10414000AA81B981CE0FD11D0FB6F894DEBF0FBE84
:10415000CDBFED010895A1E21A2EAA1BBB1BFD01E4
:104160000DC0AA1FBB1FEE1FFF1FA217B307E40756
:10417000F50720F0A21BB30BE40BF50B661F771FAE
:10418000881F991F1A9469F760957095809590958E
:104190009B01AC01BD01CF01089510E0C9EBD0E057
:1041A00004C0FE010E944C1B2196CA3BD107C9F7EF
:0441B000F894FFCFB1
:1041B4000101000080BFFF000080BFFF000080BF3E
:1041C400FF000080BFFF6400000064000000640082
:1041D400000064000000640000006400000064004B
:1041E400000064000000640000006400000064003B
:1041F40000006400000001000000FFFF00409CC5B7
:10420400FFFF008088C3FF008088C3FFFFFFFFFF1C
:10421400FFFF0000FAC3FFFFFF0050C34700008008
:10422400BF000080BF000080BF000080BF0000808E
:10423400BF000080BF000080BF000080BF0000807E
:10424400BF000080BF000080BF000080BF0000806E
:10425400BF000080BF000080BF000000000000809D
:10426400BF000080BF000080BF000080BF0000804E
:10427400BF000080BF000080BF000080BF0000803E
:10428400BF000080BF000080BF000080BF0000802E
:10429400BF000080BF000080BF0000000000008C51
:1042A4000680000100000000000000F401E4004862
:1042B400026002DB01F3010000A10022008300E49C
:1042C400004500C60067004800E9006A00CB00AC66
:1042D400000D008E002F00D0007100F20053003456
:1042E4000095001600B70098003900BA001B0000C2
:1042F4000000006801E40031010F012301AF010057
:104304000000009C05E4009C059C059C059C0500A0
:104314000000009C05E40000000000A3095C030009
:104324000000008C08B80200000000940B55050042
:1043340000000046091D0300000000E908F7020020
:10434400000000D609820300000000A20A0D040048
:10435400000000040BEA0400000000090A9B0300AB
:104364000000003C0AC103000000006F0AE70300DC
:10437400000000610B29056E6F2044617461200008
:10438400204572726F7220200020562020202020A9
:104394002000204120202020202000206D2F732089
:1043A40020202000206B6D2F682020200020312F3A
:1043B4006D696E20200020B02043202020200020A2
:1043C400B020202020202000206D2020202020202C
:1043D4000020255370726974200020255369676E8C
:1043E400616C00206D41682020202000206D6C202D
:1043F4002020202000206B6D202020202000206819
:1044040050612020202000203F3F20202020200039
:10441400206E6F20446174610020206E6F2045720D
:0A442400726F72202020202000009B
:00000001FF
